S0150000547261666669635F4C696768742E73726563F9
S11300000C942A000C9460010C943C000C943C0069
S11300100C943C000C9449010C943C000C943C005E
S11300200C943C000C943C000C943C000C94EB00AD
S11300300C943C000C943C000C943C000C943C004C
S11300400C943C000C943C000C943C000C943C003C
S11300500C943C0011241FBECFE5D8E0DEBFCDBF19
S113006020E0A0E6B0E001C01D92A936B207E1F796
S11300700E94C6010C94A8030C94000041E060E0C7
S113008081E40E94CD0141E061E081E40E94CD0160
S113009041E062E081E40E94CD0141E060E082E45D
S11300A00E94CD0141E061E082E40E94CD0141E083
S11300B062E082E40E94CD0162E084E40E94B70120
S11300C08FB780688FBF85B7816085BF85B78D7F07
S11300D085BF8BB780648BBF89B7816089BF89B7BF
S11300E0806489BF80E00E94F80280E00E944F0390
S11300F067EF82E00E940D030895809162008430CE
S113010018F010926200F9CF813011F130F0823092
S113011099F1833009F44BC0F0CF60E081E40E9490
S1130120BB0161E081E40E94BF0162E081E40E94BE
S1130130BF0160E082E40E94BF0161E082E40E94AA
S1130140BF0162E082E40E94BB0110926100D5CF3E
S113015081E08093610060E081E40E94BF0162E07D
S113016081E40E94BF0160E082E40E94BF0162E07A
S113017082E40E94BF01C1CF60E081E40E94BF011C
S113018061E081E40E94BF0162E081E40E94BB015E
S113019060E082E40E94BB0161E082E40E94BF014E
S11301A062E082E40E94BF0110926100A6CF81E068
S11301B08093610060E081E40E94BF0162E081E419
S11301C00E94BF0160E082E40E94BF0162E082E419
S11301D00E94BF0192CF1F920F920FB60F9211246B
S11301E02F933F934F935F936F937F938F939F933B
S11301F0AF93BF93EF93FF9380916800813049F4EC
S113020010926800109267001092660010926500C8
S11302102FC080916500909166008E33910530F473
S11302200196909366008093650022C0CE9700F1FA
S1130230809167008F5F80936700809161008130B7
S113024041F461E081E40E94C30161E082E40E9420
S1130250C30180916700853039F4809162008F5F1B
S113026080936200109267001092660010926500FD
S1130270FF91EF91BF91AF919F918F917F916F917A
S11302805F914F913F912F910F900FBE0F901F9050
S113029018951F920F920FB60F9211248F939F936C
S11302A08091630090916400019690936400809320
S11302B063009F918F910F900FBE0F901F90189520
S11302C01F920F920FB60F9211242F933F934F93C7
S11302D05F936F937F938F939F93AF93BF93EF93AA
S11302E0FF93809160008F5F80936000813019F0EC
S11302F0823031F02BC06FE282E00E94640326C09A
S113030080916300909164004F97C0F480916200E3
S113031081110AC08F5F809362001092670010926F
S11303206600109265000AC0813019F48093680059
S113033005C0833019F481E0809368000E94A6030D
S1130340109264001092630010926000FF91EF918C
S1130350BF91AF919F918F917F916F915F914F91D9
S11303603F912F910F900FBE0F901F90189540E072
S11303700E94CD01089541E00E944702089540E0A3
S11303800E94470208950E94C10208950E943E00FF
S11303900E947D0080E090E00895823431F118F4E9
S11303A0813439F008958334E1F1843409F454C07C
S11303B0089541110CC02AB381E090E002C0880F77
S11303C0991F6A95E2F7809582238ABB089541308C
S11303D009F05CC02AB381E090E002C0880F991F45
S11303E06A95E2F7822B8ABB089541110CC027B3AA
S11303F081E090E002C0880F991F6A95E2F780952A
S1130400822387BB0895413009F040C027B381E0BF
S113041090E002C0880F991F6A95E2F7822B87BB90
S1130420089541110CC024B381E090E002C0880F0C
S1130430991F6A95E2F78095822384BB0895413021
S113044029F524B381E090E002C0880F991F6A95D2
S1130450E2F7822B84BB089541110CC021B381E0E3
S113046090E002C0880F991F6A95E2F78095822375
S113047081BB0895413051F421B381E090E002C082
S1130480880F991F6A95E2F7822B81BB0895823405
S113049031F118F4813439F008958334E1F184346E
S11304A009F454C0089541110CC02BB381E090E0CD
S11304B002C0880F991F6A95E2F7809582238BBB4F
S11304C00895413009F05CC02BB381E090E002C094
S11304D0880F991F6A95E2F7822B8BBB089541110F
S11304E00CC028B381E090E002C0880F991F6A9580
S11304F0E2F78095822388BB0895413009F040C01B
S113050028B381E090E002C0880F991F6A95E2F752
S1130510822B88BB089541110CC025B381E090E083
S113052002C0880F991F6A95E2F78095822385BBE4
S11305300895413029F525B381E090E002C0880F89
S1130540991F6A95E2F7822B85BB089541110CC06F
S113055022B381E090E002C0880F991F6A95E2F708
S11305608095822382BB0895413051F422B381E007
S113057090E002C0880F991F6A95E2F7822B82BB34
S113058008958234A1F018F4813431F0089583344D
S1130590C9F0843411F108952BB381E090E002C0D6
S11305A0880F991F6A95E2F782278BBB089528B3B9
S11305B081E090E002C0880F991F6A95E2F78227D4
S11305C088BB089525B381E090E002C0880F991F8D
S11305D06A95E2F7822785BB089522B381E090E013
S11305E002C0880F991F6A95E2F7822782BB08959B
S11305F0843090F4813041F028F0823041F083302F
S113060049F0089513BE089580E483BF089588E0F7
S113061083BF089588E483BF089562BF8530F0F5F1
S11306208230F9F028F4882341F0813081F0089574
S1130630833009F1843049F1089583B7816083BF21
S113064083B78D7F83BF83B78B7F83BF089583B7C1
S11306508E7F83BF83B7826083BF83B78B7F83BF63
S1130660089583B7816083BF83B7826083BF83B7F4
S11306708B7F83BF089583B78E7F83BF83B78D7FBE
S113068083BF83B7846083BF089583B7816083BFCA
S113069083B78D7F83BF83B7846083BF089584301D
S11306A090F4813041F028F0823041F0833049F0F9
S11306B0089515BC089580E485BD089588E085BD3E
S11306C0089588E485BD089564BD8530F0F58230D1
S11306D0F9F028F4882341F0813081F008958330C3
S11306E009F1843049F1089585B5816085BD85B5EA
S11306F08D7F85BD85B58B7F85BD089585B58E7F3E
S113070085BD85B5826085BD85B58B7F85BD089522
S113071085B5816085BD85B5826085BD85B58B7FD6
S113072085BD089585B58E7F85BD85B58D7F85BDD5
S113073085B5846085BD089585B5816085BD85B521
S11307408D7F85BD85B5846085BD089515BC0895EC
S1070750F894FFCF47
S9030000FC
